:100000000C942A000C94A2000C94C8000C94EE00EE
:100010000C94E5010C94E5010C94E5010C94E501C8
:100020000C94E5010C94E5010C94E5010C94E501B8
:100030000C94E5010C94E5010C94E5010C94E501A8
:100040000C94E5010C94E5010C94E5010C94E50198
:100050000C94E50111241FBECFE5D8E0DEBFCDBF73
:10006000E4E5F0E040E017C0B591A5913591259108
:10007000059107FD0CC095918591EF01F92FE82FAF
:1000800005900D92A217B307D9F7FE0104C01D9287
:10009000A217B307E1F7E435F40731F70E945400E3
:0800A0000C945200F894FFCF0C
:1000A80084E090E00E94770184E090E00E9495014E
:1000B80082E090E00E94B301789460E070E080E014
:1000C80090E00E94350160E070E084E090E00E94DA
:1000D800350161E070E087E090E00E94560161E040
:1000E80070E082E090E00E94560161E070E087E0F5
:1000F80090E00E94350161E070E083E090E00E94AA
:1001080014018B9ABA9A80E090E00E94C301892B6F
:1001180009F0939A84E090E00E94C301892B11F0C2
:10012800C29A02C09398C2982FEF84E39CE02150B2
:0C01380080409040E1F700C00000E5CFDF
:100144001F920F920FB60F9211242F933F934F9348
:100154005F936F937F938F939F93AF93BF93EF932B
:10016400FF9382E090E00E94CF01FF91EF91BF9155
:10017400AF919F918F917F916F915F914F913F913B
:0C0184002F910F900FBE0F901F90189548
:100190001F920F920FB60F9211242F933F934F93FC
:1001A0005F936F937F938F939F93AF93BF93EF93DF
:1001B000FF9387E090E00E94DA01FF91EF91BF91F9
:1001C000AF919F918F917F916F915F914F913F91EF
:0C01D0002F910F900FBE0F901F901895FC
:1001DC001F920F920FB60F9211242F933F934F93B0
:1001EC005F936F937F938F939F93AF93BF93EF9393
:1001FC00FF9387E090E00E94CF01FF91EF91BF91B8
:10020C00AF919F918F917F916F915F914F913F91A2
:0C021C002F910F900FBE0F901F901895AF
:100228006115710581F061307105D1F44AB321E09F
:1002380030E0B90102C0660F771F8A95E2F7CB015B
:10024800842B8ABB08954AB321E030E0B90102C08B
:10025800660F771F8A95E2F7CB01809584238ABBC6
:020268000895F7
:10026A006115710581F061307105D1F447B321E060
:10027A0030E0B90102C0660F771F8A95E2F7CB0119
:10028A00842B87BB089547B321E030E0B90102C04F
:10029A00660F771F8A95E2F7CB018095842387BB87
:0202AA000895B5
:1002AC006115710581F061307105D1F444B321E021
:1002BC0030E0B90102C0660F771F8A95E2F7CB01D7
:1002CC00842B84BB089544B321E030E0B90102C013
:1002DC00660F771F8A95E2F7CB018095842384BB48
:0202EC00089573
:1002EE008230910561F01CF4019739F013C0833010
:1002FE00910549F0049759F00DC015BE0BC085B796
:10030E00816085BF07C085B7826085BF03C085B792
:0C031E00836085BF8BB780648BBF08959F
:10032A008230910561F01CF4019739F013C08330D3
:10033A00910549F0049759F00DC015BE0BC085B759
:10034A00846085BF07C085B7886085BF03C085B74D
:0C035A008C6085BF8BB780688BBF089556
:100366008130910519F0029721F006C084B78F7B82
:1003760084BF84B7806484BF8BB780628BBF0895C7
:1003860026B330E0A90102C0559547958A95E2F754
:08039600CA0181709927089546
:10039E0095B321E030E002C0220F331F8A95E2F7B9
:0603AE00292725BB08957C
:1003B40098B321E030E002C0220F331F8A95E2F7A0
:0603C400292728BB089563
:0403CA000C9400008F
:00000001FF
