:100000000C9431000C943A030C943A030C943A0388
:100010000C943A030C943A030C943A030C943A036C
:100020000C943A030C943A030C943A030C943A035C
:100030000C943A030C94D5010C943A030C943A03B3
:100040000C943A030C943A030C943A030C943A033C
:100050000C943A030060006D000678006D007A0091
:10006000068511241FBECFE5D8E0DEBFCDBFE4E595
:10007000F0E040E017C0B591A5913591259105912B
:1000800007FD0CC095918591EF01F92FE82F0590A0
:100090000D92A217B307D9F7FE0104C01D92A21753
:1000A000B307E1F7E236F40731F70E94C4020C947B
:0600B0005900F894FFCF97
:1000B6000E94170358F00E94100340F029F45F3F96
:1000C60029F00C94250351110C941F030C9437034B
:1000D6000E94600268F39923B1F3552391F3951BAF
:1000E600550BBB27AA2762177307840738F09F5F53
:1000F6005F4F220F331F441FAA1FA9F335D00E2EC0
:100106003AF0E0E832D091505040E695001CCAF72C
:100116002BD0FE2F29D0660F771F881FBB1F2617EF
:1001260037074807AB07B0E809F0BB0B802DBF01C6
:10013600FF2793585F4F3AF09E3F510578F00C9495
:1001460025030C941F035F3FE4F3983ED4F3869592
:1001560077956795B795F7959F5FC9F7880F911DB6
:100166009695879597F90895E1E0660F771F881FA2
:10017600BB1F621773078407BA0720F0621B730B55
:0C018600840BBA0BEE1F88F7E09508957B
:100192000E94100338F00E94170320F0952311F0FB
:1001A2000C9425030C94370311240C941F030E9412
:1001B200600270F3959FC1F3950F50E0551F629F47
:1001C200F001729FBB27F00DB11D639FAA27F00DAE
:1001D200B11DAA1F649F6627B00DA11D661F829FD5
:1001E2002227B00DA11D621F739FB00DA11D621FBA
:1001F200839FA00D611D221F749F3327A00D611DD7
:10020200231F849F600D211D822F762F6A2F1124B8
:100212009F5750409AF0F1F088234AF0EE0FFF1FEB
:10022200BB1F661F771F881F91505040A9F79E3F42
:10023200510580F00C9425030C941F035F3FE4F3F7
:10024200983ED4F3869577956795B795F795E79598
:100252009F5FC1F7FE2B880F911D9695879597F9A1
:020262000895FD
:100264000E94100338F00E94170320F039F49F3FD6
:1002740019F426F40C9437030EF4E095E7FB0C9480
:100284002503E92F0E94600258F3BA176207730727
:100294008407950720F079F4A6F50C941E030EF458
:1002A400E0950B2EBA2FA02D0B01B90190010C0182
:1002B400CA01A0011124FF27591B99F0593F50F49A
:1002C400503E68F11A16F040A22F232F342F4427F2
:1002D400585FF3CF469537952795A795F0405395EA
:1002E400C9F77EF41F16BA0B620B730B840BBAF0BA
:1002F4009150A1F0FF0FBB1F661F771F881FC2F725
:100304000EC0BA0F621F731F841F48F48795779538
:100314006795B795F7959E3F08F0B0CF9395880FF2
:0C03240008F09927EE0F97958795089533
:10033000E89409C097FB3EF490958095709561957F
:100340007F4F8F4F9F4F9923A9F0F92F96E9BB2735
:100350009395F695879577956795B795F111F8CFB1
:10036000FAF4BB0F11F460FF1BC06F5F7F4F8F4F1C
:100370009F4F16C0882311F096E911C0772321F012
:100380009EE8872F762F05C0662371F096E8862FAA
:1003900070E060E02AF09A95660F771F881FDAF701
:0A03A000880F9695879597F9089548
:1003AA001F920F920FB60F9211242F933F934F93E0
:1003BA005F936F937F938F939F93AF93BF93EF93C3
:1003CA00FF938CB1843591F485B3805885BB87E05F
:1003DA0090E00E94F602892B29F08DE690E00E94B7
:1003EA00E70204C080E690E00E94E702FF91EF91E5
:1003FA00BF91AF919F918F917F916F915F914F9133
:0E040A003F912F910F900FBE0F901F901895ED
:100418000E94680288F09F5798F0B92F9927B75122
:10042800B0F0E1F0660F771F881F991F1AF0BA9590
:10043800C9F714C0B13091F00E941E03B1E00895CD
:100448000C941E03672F782F8827B85F39F0B93FBF
:10045800CCF3869577956795B395D9F73EF4909543
:0E0468008095709561957F4F8F4F9F4F08953F
:10047600BC018AB188628AB9549A579A072E000C31
:10048600880B990B0E949A0120E030E040E851E485
:100496000E9433039B01AC0160E074E284E79BE4B5
:1004A6000E942F0320E030E040E85FE30E94020351
:0A04B6000E94090369B970BD0895A2
:1004C00057FD9058440F551F59F05F3F71F0479505
:1004D000880F97FB991F61F09F3F79F087950895EA
:1004E000121613061406551FF2CF4695F1DF08C009
:1004F000161617061806991FF1CF86957105610526
:0405000008940895BE
:100504006115710581F061307105D1F447B321E0C3
:1005140030E0B90102C0660F771F8A95E2F7CB017C
:10052400842B87BB089547B321E030E0B90102C0B2
:10053400660F771F8A95E2F7CB018095842387BBEA
:02054400089518
:100546006115710581F061307105D1F444B321E084
:1005560030E0B90102C0660F771F8A95E2F7CB013A
:10056600842B84BB089544B321E030E0B90102C076
:10057600660F771F8A95E2F7CB018095842384BBAB
:020586000895D6
:1005880060E070E080E090E00E94820261E070E04C
:1005980087E090E00E94A302789480E895E20E94A8
:0405A8003B02FFCF44
:1005AC00092E0394000C11F4882352F0BB0F40F475
:1005BC00BF2B11F460FF04C06F5F7F4F8F4F9F4FB5
:0205CC00089590
:1005CE00CF93DF93EC018881882331F021960E942E
:0E05DE002B0389918111FBCFDF91CF910895FE
:1005EC0023B330E0A90102C0559547958A95E2F7EF
:0805FC00CA01817099270895DE
:0E0604005058BB27AA270E9443010C94D6022F
:0E0612000E940C026894B1110C941F0308950D
:0E06200000240A9416161706180609060895F7
:0E062E0000240A9412161306140605060895F9
:0E063C00E894BB2766277727CB0197F908952E
:0C064A0097F99F6780E870E060E0089579
:080656005D9BFECF8CB90895F5
:08065E000E946B000C94D6020F
:080666000E94D8000C94D6029A
:06066E009FEF80EC0895EF
:040674000C940000E2
:0D0678004C6564206973204F4646090D0053
:0D0685004C6564206973204F6E20090D0044
:00000001FF
