:100000000C9442000C9427040C94BF040C94BF047D
:100010000C94BF040C94BF040C94BF040C94BF0454
:100020000C94BF040C94BF040C941E020C948D011C
:100030000C94BF040C94BF040C94BF040C94BF0434
:100040000C946C000C94BF040C94BF040C94BF047B
:100050000C94BF04007100730009930073007500D5
:10006000099500750077800077007900099700688E
:10007000006D00098A006D007100098F0060006842
:100080000009820011241FBECFE5D8E0DEBFCDBF3E
:10009000E4E5F0E040E017C0B591A59135912591D8
:1000A000059107FD0CC095918591EF01F92FE82F7F
:1000B00005900D92A217B307D9F7FE0104C01D9257
:1000C000A217B307E1F7E338F40731F70E949A0269
:0800D0000C946A00F894FFCFC4
:1000D8001F920F920FB60F9211240F931F932F9315
:1000E8003F934F935F936F937F938F939F93AF93B8
:1000F800BF93EF93FF93CF93DF93CDB7DEB76497AA
:10010800DEBFCDBF0E94B304BC01660F771F660F28
:10011800771F860F971FBC01990F880B990B0E94B8
:100128005F022FE632E143E85FE30E94B8040E94D1
:100138009104DC01CB018C014AE0BE016F5F7F4F67
:100148000E946604093E1340B4F148E650E067E0B7
:1001580080E00E94D003AE014F5F5F4F67E080E010
:100168000E94D00382E090E00E94450487E090E07E
:100178000E9450048091770090917800892BB9F102
:1001880083E090E00E9445048FEF93ED20E38150D7
:1001980090402040E1F700C0000061E083E090E07B
:1001A8000E94DB0183E090E00E945B0410927800DB
:1001B800109277001CC048E650E067E080E00E949B
:1001C800D003AE014F5F5F4F67E080E00E94D0032D
:1001D80061E082E090E00E94DB0163E087E090E06C
:1001E8000E94DB0164E083E090E00E94DB018FEF76
:1001F80099E628E1815090402040E1F700C00000D6
:1002080064960FB6F894DEBF0FBECDBFDF91CF91D5
:10021800FF91EF91BF91AF919F918F917F916F91D6
:100228005F914F913F912F911F910F910F900FBEAA
:060238000F901F901895C5
:10023E000E949F0458F00E94980440F029F45F3FFA
:10024E0029F00C94AD0451110C94A7040C94BC0429
:10025E000E944B0368F39923B1F3552391F3951B39
:10026E00550BBB27AA2762177307840738F09F5FC9
:10027E005F4F220F331F441FAA1FA9F335D00E2E36
:10028E003AF0E0E832D091505040E695001CCAF7A3
:10029E002BD0FE2F29D0660F771F881FBB1F261766
:1002AE0037074807AB07B0E809F0BB0B802DBF013D
:1002BE00FF2793585F4F3AF09E3F510578F00C940C
:1002CE00AD040C94A7045F3FE4F3983ED4F38695F7
:1002DE0077956795B795F7959F5FC9F7880F911D2D
:1002EE009695879597F90895E1E0660F771F881F19
:1002FE00BB1F621773078407BA0720F0621B730BCC
:0C030E00840BBA0BEE1F88F7E0950895F1
:10031A001F920F920FB60F9211242F933F934F9370
:10032A005F936F937F938F939F93AF93BF93EF9353
:10033A00FF938091750090917600019690937600D4
:10034A0080937500CE9709F580917300909174009F
:10035A00892B59F084E885BB83E090E00E945B0416
:10036A0010927400109273000CC015BA64E083E016
:10037A0090E00E94DB0181E090E09093740080930A
:10038A0073001092760010927500FF91EF91BF9161
:10039A00AF919F918F917F916F915F914F913F9113
:0C03AA002F910F900FBE0F901F90189520
:1003B6006230B9F018F4613031F008956330F9F025
:1003C600643059F108954BB321E030E0B90102C021
:1003D600660F771F8A95E2F7CB01809584238BBB46
:1003E600089548B321E030E0B90102C0660F771FD7
:1003F6008A95E2F7CB018095842388BB089545B39F
:1004060021E030E0B90102C0660F771F8A95E2F756
:10041600CB018095842385BB089542B321E030E06B
:10042600B90102C0660F771F8A95E2F7CB01809566
:06043600842382BB08953F
:10043C001F920F920FB60F9211242F933F934F934D
:10044C005F936F937F938F939F93AF93BF93EF9330
:10045C00FF938091710090917200892B59F084E880
:10046C0085BB83E090E00E945B04109272001092B6
:10047C0071000CC015BA64E083E090E00E94DB01CF
:10048C0081E090E09093720080937100FF91EF9166
:10049C00BF91AF919F918F917F916F915F914F9190
:0E04AC003F912F910F900FBE0F901F9018954B
:1004BA00E89409C097FB3EF49095809570956195F4
:1004CA007F4F8F4F9F4F9923A9F0F92F96E9BB27AA
:1004DA009395F695879577956795B795F111F8CF26
:1004EA00FAF4BB0F11F460FF1BC06F5F7F4F8F4F91
:1004FA009F4F16C0882311F096E911C0772321F087
:10050A009EE8872F762F05C0662371F096E8862F1E
:10051A0070E060E02AF09A95660F771F881FDAF775
:0A052A00880F9695879597F90895BC
:1005340081E090E00E947A0461E070E083E090E062
:100544000E948E0360E070E082E090E00E948E03DF
:1005540061E070E082E090E00E946D0360E070E092
:1005640081E090E00E946D030E94AF030E94710439
:100574000E948A040E948304789440E650E060E07C
:1005840080E00E94D0034DE650E06CE080E00E94E1
:04059400D003FFCFC2
:100598000E94530388F09F5798F0B92F9927B751B5
:1005A800B0F0E1F0660F771F881F991F1AF0BA950F
:1005B800C9F714C0B13091F00E94A604B1E00895C3
:1005C8000C94A604672F782F8827B85F39F0B93FB5
:1005D800CCF3869577956795B395D9F73EF49095C2
:0E05E8008095709561957F4F8F4F9F4F0895BE
:1005F6009BB39F70282F207F922B9BBBC198C39AD9
:1006060035E33A95F1F70000C398EFE3FFE1319740
:10061600F1F700C000002BB32F70F0E18F9FC001EF
:100626001124822B8BBBC39A35E03A95F1F7000073
:10063600C3988FE39FE10197F1F700C0000008958A
:100646009BB39F70282F207F922B9BBBC19AC39A86
:1006560035E33A95F1F70000C398EFE1F3E03197FF
:10066600F1F700C000002BB32F70F0E18F9FC0019F
:100676001124822B8BBBC39A35E33A95F1F7000020
:10068600C3988FE59DE60197F1F700C00000089535
:1006960057FD9058440F551F59F05F3F71F047952D
:1006A600880F97FB991F61F09F3F79F08795089512
:1006B600121613061406551FF2CF4695F1DF08C031
:1006C600161617061806991FF1CF8695710561054E
:0406D60008940895E7
:1006DA006115710581F061307105D1F44AB321E0E9
:1006EA0030E0B90102C0660F771F8A95E2F7CB01A5
:1006FA00842B8ABB08954AB321E030E0B90102C0D5
:10070A00660F771F8A95E2F7CB01809584238ABB0F
:02071A00089540
:10071C006115710581F061307105D1F441B321E0AF
:10072C0030E0B90102C0660F771F8A95E2F7CB0162
:10073C00842B81BB089541B321E030E0B90102C0A4
:10074C00660F771F8A95E2F7CB018095842381BBD6
:02075C000895FE
:10075E008FEF8ABB8FE087BBC2982FEF89EF90E0B7
:10076E00215080409040E1F700C0000083E30E94DA
:10077E00FB0282E30E94FB0288E20E94FB028CE0F5
:10078E000E94FB0286E00E94FB0281E00E94FB02B7
:02079E000895BC
:1007A000CF93DF93EA01811108C0603178F4862F7E
:1007B0008F7080680E94FB0209C0813039F460317B
:1007C00028F4862F8F70806C0E94FB02CE010E945D
:0807D0003604DF91CF9108957A
:1007D800BB27FB015527AA27880F991FAA1FA41713
:1007E80010F0A41B83955051B9F7A05DAA3308F007
:1007F800A95DA193009779F7B111B1931192CB013B
:040808000C94170431
:10080C00092E0394000C11F4882352F0BB0F40F412
:10081C00BF2B11F460FF04C06F5F7F4F8F4F9F4F52
:02082C0008952D
:10082E00DC01FC01672F71917723E1F7329704C049
:10083E007C916D9370836291AE17BF07C8F30895D4
:10084E001F920F920FB60F9211248F938CB78C5E5E
:0E085E008CBF8F910F900FBE0F901F901895BA
:10086C00CF93DF93EC018881882331F021960E948D
:0E087C00230389918111FBCFDF91CF91089565
:10088A009BB321E030E002C0220F331F8A95E2F7C2
:06089A00292B2BBB089581
:1008A00095B321E030E002C0220F331F8A95E2F7B2
:0608B000292B25BB089571
:1008B60092B321E030E002C0220F331F8A95E2F79F
:0608C600292B22BB08955E
:1008CC00BB274A3031F4992322F4BDE290958195EF
:0608DC009F4F0C94ED0398
:1008E20081E487B980B7806480BF86B18F6A86B998
:0208F200089567
:1008F400009729F0019721F48FEF84BB089514BA6F
:02090400089554
:0E09060083B7856683BF80E88CBFBB9A0895D7
:0E09140085B7836085BF8BB780648BBF089565
:0E0922000E94CC026894B1110C94A7040895B1
:0E09300000240A9416161706180609060895E4
:0E093E0000240A9412161306140605060895E6
:0E094C00E894BB2766277727CB0197F908951B
:0C095A0097F99F6780E870E060E0089566
:0A09660084B125B190E0922B0895B2
:080970000E942F010C94060403
:060978009FEF80EC0895E2
:04097E000C940000D5
:08098200566F6C74203D20004B
:05098A002020202000E8
:04098F00206D560081
:02099300010061
:0209950001005F
:0209970001005D
:00000001FF
