:100000000C942A000C94EB000C94EB000C94EB0085
:100010000C94EB000C94EB000C94EB000C94EB00B4
:100020000C94EB000C94EB000C94EB000C94EB00A4
:100030000C94EB000C94EB000C94EB000C94EB0094
:100040000C9436000C94EB000C94EB000C94EB0039
:100050000C94EB0011241FBECFE5D8E0DEBFCDBF6E
:0C0060000E94BC000C943400F894FFCF08
:10006C001F920F920FB60F9211242F933F934F9321
:10007C005F936F937F938F939F93AF93BF93CF9324
:10008C00DF93EF93FF930E94E600EC010E94EF00D8
:10009C00CE0195958795959587950E94F1002FEF48
:1000AC0083ED90E3215080409040E1F700C00000C8
:1000BC000E94ED00FF91EF91DF91CF91BF91AF9135
:1000CC009F918F917F916F915F914F913F912F9164
:0A00DC000F900FBE0F901F901895B3
:1000E6009BB39F70282F207F922B9BBBC198C39AEE
:1000F60035E33A95F1F70000C398EFE3FFE1319756
:10010600F1F700C000002BB32F70F0E18F9FC00104
:100116001124822B8BBBC39A35E03A95F1F7000088
:10012600C3988FE39FE10197F1F700C0000008959F
:100136008FEF8ABB8FE087BBC2982FEF89EF90E0E5
:10014600215080409040E1F700C0000083E30E9408
:10015600730082E30E94730088E20E9473008CE0C1
:100166000E94730086E00E94730081E00E94730083
:020176000895EA
:1001780081E090E00E94CC0081E090E00E94D500F0
:100188000E949B000E94DE0078940E94ED00FFCF41
:10019800009729F0019721F48FEF84BB089514BAD2
:0201A8000895B8
:1001AA00009729F0019721F48FEF81BB089511BAC6
:0201BA000895A6
:1001BC0017B880B7806480BF86B1896886B9089506
:0A01CC0084B125B190E0922B089554
:0401D6000C94000085
:0401DA00369A0895B4
:0401DE0085BB089540
:0401E20082BB08953F
:00000001FF
